{
  "_format": "hh-sol-artifact-1",
  "contractName": "USDCTransporter",
  "sourceName": "contracts/USDCTransporter.sol",
  "abi": [
    {
      "inputs": [],
      "stateMutability": "nonpayable",
      "type": "constructor"
    },
    {
      "inputs": [
        {
          "internalType": "uint256",
          "name": "currentBalance",
          "type": "uint256"
        },
        {
          "internalType": "uint256",
          "name": "calculatedFees",
          "type": "uint256"
        }
      ],
      "name": "NotEnoughBalanceForFees",
      "type": "error"
    },
    {
      "inputs": [
        {
          "internalType": "uint256",
          "name": "currentBalance",
          "type": "uint256"
        }
      ],
      "name": "NotEnoughBalanceUsdcForTransfer",
      "type": "error"
    },
    {
      "inputs": [],
      "name": "NothingToWithdraw",
      "type": "error"
    },
    {
      "inputs": [
        {
          "internalType": "address",
          "name": "owner",
          "type": "address"
        }
      ],
      "name": "OwnableInvalidOwner",
      "type": "error"
    },
    {
      "inputs": [
        {
          "internalType": "address",
          "name": "account",
          "type": "address"
        }
      ],
      "name": "OwnableUnauthorizedAccount",
      "type": "error"
    },
    {
      "anonymous": false,
      "inputs": [
        {
          "indexed": true,
          "internalType": "address",
          "name": "previousOwner",
          "type": "address"
        },
        {
          "indexed": true,
          "internalType": "address",
          "name": "newOwner",
          "type": "address"
        }
      ],
      "name": "OwnershipTransferred",
      "type": "event"
    },
    {
      "anonymous": false,
      "inputs": [
        {
          "indexed": false,
          "internalType": "bytes32",
          "name": "messageId",
          "type": "bytes32"
        },
        {
          "indexed": false,
          "internalType": "uint64",
          "name": "destinationChainSelector",
          "type": "uint64"
        },
        {
          "indexed": false,
          "internalType": "address",
          "name": "receiver",
          "type": "address"
        },
        {
          "indexed": false,
          "internalType": "uint256",
          "name": "amount",
          "type": "uint256"
        },
        {
          "indexed": false,
          "internalType": "uint256",
          "name": "ccipFee",
          "type": "uint256"
        }
      ],
      "name": "UsdcTransferred",
      "type": "event"
    },
    {
      "inputs": [],
      "name": "allowanceUsdc",
      "outputs": [
        {
          "internalType": "uint256",
          "name": "usdcAmount",
          "type": "uint256"
        }
      ],
      "stateMutability": "view",
      "type": "function"
    },
    {
      "inputs": [
        {
          "internalType": "address",
          "name": "account",
          "type": "address"
        }
      ],
      "name": "balancesOf",
      "outputs": [
        {
          "internalType": "uint256",
          "name": "linkBalance",
          "type": "uint256"
        },
        {
          "internalType": "uint256",
          "name": "usdcBalance",
          "type": "uint256"
        }
      ],
      "stateMutability": "view",
      "type": "function"
    },
    {
      "inputs": [],
      "name": "owner",
      "outputs": [
        {
          "internalType": "address",
          "name": "",
          "type": "address"
        }
      ],
      "stateMutability": "view",
      "type": "function"
    },
    {
      "inputs": [],
      "name": "renounceOwnership",
      "outputs": [],
      "stateMutability": "nonpayable",
      "type": "function"
    },
    {
      "inputs": [
        {
          "internalType": "address",
          "name": "newOwner",
          "type": "address"
        }
      ],
      "name": "transferOwnership",
      "outputs": [],
      "stateMutability": "nonpayable",
      "type": "function"
    },
    {
      "inputs": [
        {
          "internalType": "uint64",
          "name": "_destinationChainSelector",
          "type": "uint64"
        },
        {
          "internalType": "address",
          "name": "_receiver",
          "type": "address"
        },
        {
          "internalType": "uint256",
          "name": "_amount",
          "type": "uint256"
        }
      ],
      "name": "transferUsdcToSepolia",
      "outputs": [
        {
          "internalType": "bytes32",
          "name": "messageId",
          "type": "bytes32"
        }
      ],
      "stateMutability": "nonpayable",
      "type": "function"
    },
    {
      "inputs": [
        {
          "internalType": "address",
          "name": "_ccipRouterAddress",
          "type": "address"
        },
        {
          "internalType": "address",
          "name": "_linkAddress",
          "type": "address"
        },
        {
          "internalType": "address",
          "name": "_usdcAddress",
          "type": "address"
        }
      ],
      "name": "updateCCIPConfigs",
      "outputs": [],
      "stateMutability": "nonpayable",
      "type": "function"
    },
    {
      "inputs": [
        {
          "internalType": "address",
          "name": "_beneficiary",
          "type": "address"
        },
        {
          "internalType": "address",
          "name": "_token",
          "type": "address"
        }
      ],
      "name": "withdrawToken",
      "outputs": [],
      "stateMutability": "nonpayable",
      "type": "function"
    }
  ],
  "bytecode": "0x608060405273114a20a10b43d4115e5aeef7345a1a71d2a60c57600460006101000a81548173ffffffffffffffffffffffffffffffffffffffff021916908373ffffffffffffffffffffffffffffffffffffffff16021790555073e4ab69c077896252fafbd49efd26b5d171a32410600560006101000a81548173ffffffffffffffffffffffffffffffffffffffff021916908373ffffffffffffffffffffffffffffffffffffffff160217905550735fd84259d66cd46123540766be93dfe6d43130d7600660006101000a81548173ffffffffffffffffffffffffffffffffffffffff021916908373ffffffffffffffffffffffffffffffffffffffff1602179055503480156200011057600080fd5b5033600073ffffffffffffffffffffffffffffffffffffffff168173ffffffffffffffffffffffffffffffffffffffff1603620001875760006040517f1e4fbdf70000000000000000000000000000000000000000000000000000000081526004016200017e9190620003d1565b60405180910390fd5b6200019881620002c860201b60201c565b50600460009054906101000a900473ffffffffffffffffffffffffffffffffffffffff16600160006101000a81548173ffffffffffffffffffffffffffffffffffffffff021916908373ffffffffffffffffffffffffffffffffffffffff160217905550600560009054906101000a900473ffffffffffffffffffffffffffffffffffffffff16600260006101000a81548173ffffffffffffffffffffffffffffffffffffffff021916908373ffffffffffffffffffffffffffffffffffffffff160217905550600660009054906101000a900473ffffffffffffffffffffffffffffffffffffffff16600360006101000a81548173ffffffffffffffffffffffffffffffffffffffff021916908373ffffffffffffffffffffffffffffffffffffffff160217905550620003ee565b60008060009054906101000a900473ffffffffffffffffffffffffffffffffffffffff169050816000806101000a81548173ffffffffffffffffffffffffffffffffffffffff021916908373ffffffffffffffffffffffffffffffffffffffff1602179055508173ffffffffffffffffffffffffffffffffffffffff168173ffffffffffffffffffffffffffffffffffffffff167f8be0079c531659141344cd1fd0a4f28419497f9722a3daafe3b4186f6b6457e060405160405180910390a35050565b600073ffffffffffffffffffffffffffffffffffffffff82169050919050565b6000620003b9826200038c565b9050919050565b620003cb81620003ac565b82525050565b6000602082019050620003e86000830184620003c0565b92915050565b611d2980620003fe6000396000f3fe608060405234801561001057600080fd5b50600436106100885760003560e01c80638d8787741161005b5780638d878774146101005780638da5cb5b14610130578063ed3bd5bc1461014e578063f2fde38b1461016c57610088565b80633aeac4e11461008d5780636392a51f146100a9578063715018a6146100da578063808b636f146100e4575b600080fd5b6100a760048036038101906100a29190611398565b610188565b005b6100c360048036038101906100be91906113d8565b6102cc565b6040516100d192919061141e565b60405180910390f35b6100e2610410565b005b6100fe60048036038101906100f99190611447565b610424565b005b61011a60048036038101906101159190611506565b6104f4565b6040516101279190611572565b60405180910390f35b610138610cc2565b604051610145919061159c565b60405180910390f35b610156610ceb565b60405161016391906115b7565b60405180910390f35b610186600480360381019061018191906113d8565b610d90565b005b610190610e16565b60008173ffffffffffffffffffffffffffffffffffffffff166370a08231306040518263ffffffff1660e01b81526004016101cb919061159c565b602060405180830381865afa1580156101e8573d6000803e3d6000fd5b505050506040513d601f19601f8201168201806040525081019061020c91906115e7565b905060008103610248576040517fd0d04f6000000000000000000000000000000000000000000000000000000000815260040160405180910390fd5b8173ffffffffffffffffffffffffffffffffffffffff1663a9059cbb84836040518363ffffffff1660e01b8152600401610283929190611614565b6020604051808303816000875af11580156102a2573d6000803e3d6000fd5b505050506040513d601f19601f820116820180604052508101906102c69190611675565b50505050565b600080600260009054906101000a900473ffffffffffffffffffffffffffffffffffffffff1673ffffffffffffffffffffffffffffffffffffffff166370a08231846040518263ffffffff1660e01b815260040161032a919061159c565b602060405180830381865afa158015610347573d6000803e3d6000fd5b505050506040513d601f19601f8201168201806040525081019061036b91906115e7565b9150600360009054906101000a900473ffffffffffffffffffffffffffffffffffffffff1673ffffffffffffffffffffffffffffffffffffffff166370a08231846040518263ffffffff1660e01b81526004016103c8919061159c565b602060405180830381865afa1580156103e5573d6000803e3d6000fd5b505050506040513d601f19601f8201168201806040525081019061040991906115e7565b9050915091565b610418610e16565b6104226000610e9d565b565b61042c610e16565b82600160006101000a81548173ffffffffffffffffffffffffffffffffffffffff021916908373ffffffffffffffffffffffffffffffffffffffff16021790555081600260006101000a81548173ffffffffffffffffffffffffffffffffffffffff021916908373ffffffffffffffffffffffffffffffffffffffff16021790555080600360006101000a81548173ffffffffffffffffffffffffffffffffffffffff021916908373ffffffffffffffffffffffffffffffffffffffff160217905550505050565b600080600167ffffffffffffffff811115610512576105116116a2565b5b60405190808252806020026020018201604052801561054b57816020015b610538611305565b8152602001906001900390816105305790505b50905060006040518060400160405280600360009054906101000a900473ffffffffffffffffffffffffffffffffffffffff1673ffffffffffffffffffffffffffffffffffffffff16815260200185815250905080826000815181106105b4576105b36116d1565b5b602002602001018190525060006040518060a00160405280876040516020016105dd919061159c565b6040516020818303038152906040528152602001604051806020016040528060008152508152602001848152602001600260009054906101000a900473ffffffffffffffffffffffffffffffffffffffff1673ffffffffffffffffffffffffffffffffffffffff16815260200161066260405180602001604052806000815250610f61565b81525090506000600160009054906101000a900473ffffffffffffffffffffffffffffffffffffffff1673ffffffffffffffffffffffffffffffffffffffff166320487ded89846040518363ffffffff1660e01b81526004016106c6929190611926565b602060405180830381865afa1580156106e3573d6000803e3d6000fd5b505050506040513d601f19601f8201168201806040525081019061070791906115e7565b9050600260009054906101000a900473ffffffffffffffffffffffffffffffffffffffff1673ffffffffffffffffffffffffffffffffffffffff166370a08231306040518263ffffffff1660e01b8152600401610764919061159c565b602060405180830381865afa158015610781573d6000803e3d6000fd5b505050506040513d601f19601f820116820180604052508101906107a591906115e7565b81111561088657600260009054906101000a900473ffffffffffffffffffffffffffffffffffffffff1673ffffffffffffffffffffffffffffffffffffffff166370a08231306040518263ffffffff1660e01b8152600401610807919061159c565b602060405180830381865afa158015610824573d6000803e3d6000fd5b505050506040513d601f19601f8201168201806040525081019061084891906115e7565b816040517f28fdcaa100000000000000000000000000000000000000000000000000000000815260040161087d92919061141e565b60405180910390fd5b600260009054906101000a900473ffffffffffffffffffffffffffffffffffffffff1673ffffffffffffffffffffffffffffffffffffffff1663095ea7b3600160009054906101000a900473ffffffffffffffffffffffffffffffffffffffff16836040518363ffffffff1660e01b8152600401610905929190611614565b6020604051808303816000875af1158015610924573d6000803e3d6000fd5b505050506040513d601f19601f820116820180604052508101906109489190611675565b50600360009054906101000a900473ffffffffffffffffffffffffffffffffffffffff1673ffffffffffffffffffffffffffffffffffffffff166370a08231336040518263ffffffff1660e01b81526004016109a4919061159c565b602060405180830381865afa1580156109c1573d6000803e3d6000fd5b505050506040513d601f19601f820116820180604052508101906109e591906115e7565b861115610ac457600360009054906101000a900473ffffffffffffffffffffffffffffffffffffffff1673ffffffffffffffffffffffffffffffffffffffff166370a08231336040518263ffffffff1660e01b8152600401610a47919061159c565b602060405180830381865afa158015610a64573d6000803e3d6000fd5b505050506040513d601f19601f82011682018060405250810190610a8891906115e7565b6040517f6212cf3b000000000000000000000000000000000000000000000000000000008152600401610abb91906115b7565b60405180910390fd5b610b13333088600360009054906101000a900473ffffffffffffffffffffffffffffffffffffffff1673ffffffffffffffffffffffffffffffffffffffff16610fe0909392919063ffffffff16565b600360009054906101000a900473ffffffffffffffffffffffffffffffffffffffff1673ffffffffffffffffffffffffffffffffffffffff1663095ea7b3600160009054906101000a900473ffffffffffffffffffffffffffffffffffffffff16886040518363ffffffff1660e01b8152600401610b92929190611614565b6020604051808303816000875af1158015610bb1573d6000803e3d6000fd5b505050506040513d601f19601f82011682018060405250810190610bd59190611675565b50600160009054906101000a900473ffffffffffffffffffffffffffffffffffffffff1673ffffffffffffffffffffffffffffffffffffffff166396f4e9f989846040518363ffffffff1660e01b8152600401610c33929190611926565b6020604051808303816000875af1158015610c52573d6000803e3d6000fd5b505050506040513d601f19601f82011682018060405250810190610c769190611982565b94507fb55a3d3f1ccd1c10f00aff03ad884028d98fa1d478fae03acecbf884ce8e8fbc8589898985604051610caf9594939291906119af565b60405180910390a1505050509392505050565b60008060009054906101000a900473ffffffffffffffffffffffffffffffffffffffff16905090565b6000600360009054906101000a900473ffffffffffffffffffffffffffffffffffffffff1673ffffffffffffffffffffffffffffffffffffffff1663dd62ed3e33306040518363ffffffff1660e01b8152600401610d4a929190611a02565b602060405180830381865afa158015610d67573d6000803e3d6000fd5b505050506040513d601f19601f82011682018060405250810190610d8b91906115e7565b905090565b610d98610e16565b600073ffffffffffffffffffffffffffffffffffffffff168173ffffffffffffffffffffffffffffffffffffffff1603610e0a5760006040517f1e4fbdf7000000000000000000000000000000000000000000000000000000008152600401610e01919061159c565b60405180910390fd5b610e1381610e9d565b50565b610e1e611069565b73ffffffffffffffffffffffffffffffffffffffff16610e3c610cc2565b73ffffffffffffffffffffffffffffffffffffffff1614610e9b57610e5f611069565b6040517f118cdaa7000000000000000000000000000000000000000000000000000000008152600401610e92919061159c565b60405180910390fd5b565b60008060009054906101000a900473ffffffffffffffffffffffffffffffffffffffff169050816000806101000a81548173ffffffffffffffffffffffffffffffffffffffff021916908373ffffffffffffffffffffffffffffffffffffffff1602179055508173ffffffffffffffffffffffffffffffffffffffff168173ffffffffffffffffffffffffffffffffffffffff167f8be0079c531659141344cd1fd0a4f28419497f9722a3daafe3b4186f6b6457e060405160405180910390a35050565b60606397a657c960e01b82604051602401610f7c9190611a47565b604051602081830303815290604052907bffffffffffffffffffffffffffffffffffffffffffffffffffffffff19166020820180517bffffffffffffffffffffffffffffffffffffffffffffffffffffffff83818316178352505050509050919050565b611063846323b872dd60e01b85858560405160240161100193929190611a62565b604051602081830303815290604052907bffffffffffffffffffffffffffffffffffffffffffffffffffffffff19166020820180517bffffffffffffffffffffffffffffffffffffffffffffffffffffffff8381831617835250505050611071565b50505050565b600033905090565b60006110d3826040518060400160405280602081526020017f5361666545524332303a206c6f772d6c6576656c2063616c6c206661696c65648152508573ffffffffffffffffffffffffffffffffffffffff166111389092919063ffffffff16565b905060008151111561113357808060200190518101906110f39190611675565b611132576040517f08c379a000000000000000000000000000000000000000000000000000000000815260040161112990611b1c565b60405180910390fd5b5b505050565b60606111478484600085611150565b90509392505050565b606082471015611195576040517f08c379a000000000000000000000000000000000000000000000000000000000815260040161118c90611bae565b60405180910390fd5b6000808673ffffffffffffffffffffffffffffffffffffffff1685876040516111be9190611c0a565b60006040518083038185875af1925050503d80600081146111fb576040519150601f19603f3d011682016040523d82523d6000602084013e611200565b606091505b50915091506112118783838761121d565b92505050949350505050565b6060831561127f5760008351036112775761123785611292565b611276576040517f08c379a000000000000000000000000000000000000000000000000000000000815260040161126d90611c6d565b60405180910390fd5b5b82905061128a565b61128983836112b5565b5b949350505050565b6000808273ffffffffffffffffffffffffffffffffffffffff163b119050919050565b6000825111156112c85781518083602001fd5b806040517f08c379a00000000000000000000000000000000000000000000000000000000081526004016112fc9190611cd1565b60405180910390fd5b6040518060400160405280600073ffffffffffffffffffffffffffffffffffffffff168152602001600081525090565b600080fd5b600073ffffffffffffffffffffffffffffffffffffffff82169050919050565b60006113658261133a565b9050919050565b6113758161135a565b811461138057600080fd5b50565b6000813590506113928161136c565b92915050565b600080604083850312156113af576113ae611335565b5b60006113bd85828601611383565b92505060206113ce85828601611383565b9150509250929050565b6000602082840312156113ee576113ed611335565b5b60006113fc84828501611383565b91505092915050565b6000819050919050565b61141881611405565b82525050565b6000604082019050611433600083018561140f565b611440602083018461140f565b9392505050565b6000806000606084860312156114605761145f611335565b5b600061146e86828701611383565b935050602061147f86828701611383565b925050604061149086828701611383565b9150509250925092565b600067ffffffffffffffff82169050919050565b6114b78161149a565b81146114c257600080fd5b50565b6000813590506114d4816114ae565b92915050565b6114e381611405565b81146114ee57600080fd5b50565b600081359050611500816114da565b92915050565b60008060006060848603121561151f5761151e611335565b5b600061152d868287016114c5565b935050602061153e86828701611383565b925050604061154f868287016114f1565b9150509250925092565b6000819050919050565b61156c81611559565b82525050565b60006020820190506115876000830184611563565b92915050565b6115968161135a565b82525050565b60006020820190506115b1600083018461158d565b92915050565b60006020820190506115cc600083018461140f565b92915050565b6000815190506115e1816114da565b92915050565b6000602082840312156115fd576115fc611335565b5b600061160b848285016115d2565b91505092915050565b6000604082019050611629600083018561158d565b611636602083018461140f565b9392505050565b60008115159050919050565b6116528161163d565b811461165d57600080fd5b50565b60008151905061166f81611649565b92915050565b60006020828403121561168b5761168a611335565b5b600061169984828501611660565b91505092915050565b7f4e487b7100000000000000000000000000000000000000000000000000000000600052604160045260246000fd5b7f4e487b7100000000000000000000000000000000000000000000000000000000600052603260045260246000fd5b6117098161149a565b82525050565b600081519050919050565b600082825260208201905092915050565b60005b8381101561174957808201518184015260208101905061172e565b60008484015250505050565b6000601f19601f8301169050919050565b60006117718261170f565b61177b818561171a565b935061178b81856020860161172b565b61179481611755565b840191505092915050565b600081519050919050565b600082825260208201905092915050565b6000819050602082019050919050565b6117d48161135a565b82525050565b6117e381611405565b82525050565b6040820160008201516117ff60008501826117cb565b50602082015161181260208501826117da565b50505050565b600061182483836117e9565b60408301905092915050565b6000602082019050919050565b60006118488261179f565b61185281856117aa565b935061185d836117bb565b8060005b8381101561188e5781516118758882611818565b975061188083611830565b925050600181019050611861565b5085935050505092915050565b600060a08301600083015184820360008601526118b88282611766565b915050602083015184820360208601526118d28282611766565b915050604083015184820360408601526118ec828261183d565b915050606083015161190160608601826117cb565b50608083015184820360808601526119198282611766565b9150508091505092915050565b600060408201905061193b6000830185611700565b818103602083015261194d818461189b565b90509392505050565b61195f81611559565b811461196a57600080fd5b50565b60008151905061197c81611956565b92915050565b60006020828403121561199857611997611335565b5b60006119a68482850161196d565b91505092915050565b600060a0820190506119c46000830188611563565b6119d16020830187611700565b6119de604083018661158d565b6119eb606083018561140f565b6119f8608083018461140f565b9695505050505050565b6000604082019050611a17600083018561158d565b611a24602083018461158d565b9392505050565b602082016000820151611a4160008501826117da565b50505050565b6000602082019050611a5c6000830184611a2b565b92915050565b6000606082019050611a77600083018661158d565b611a84602083018561158d565b611a91604083018461140f565b949350505050565b600082825260208201905092915050565b7f5361666545524332303a204552433230206f7065726174696f6e20646964206e60008201527f6f74207375636365656400000000000000000000000000000000000000000000602082015250565b6000611b06602a83611a99565b9150611b1182611aaa565b604082019050919050565b60006020820190508181036000830152611b3581611af9565b9050919050565b7f416464726573733a20696e73756666696369656e742062616c616e636520666f60008201527f722063616c6c0000000000000000000000000000000000000000000000000000602082015250565b6000611b98602683611a99565b9150611ba382611b3c565b604082019050919050565b60006020820190508181036000830152611bc781611b8b565b9050919050565b600081905092915050565b6000611be48261170f565b611bee8185611bce565b9350611bfe81856020860161172b565b80840191505092915050565b6000611c168284611bd9565b915081905092915050565b7f416464726573733a2063616c6c20746f206e6f6e2d636f6e7472616374000000600082015250565b6000611c57601d83611a99565b9150611c6282611c21565b602082019050919050565b60006020820190508181036000830152611c8681611c4a565b9050919050565b600081519050919050565b6000611ca382611c8d565b611cad8185611a99565b9350611cbd81856020860161172b565b611cc681611755565b840191505092915050565b60006020820190508181036000830152611ceb8184611c98565b90509291505056fea26469706673582212206823213fa43e8527f4350f4ce83a87b8301325518377237d5b12f5ad6d662bcf64736f6c63430008180033",
  "linkReferences": {},
  "deployedLinkReferences": {}
}